:100000000C942A000C9434000C9434000C943400AA
:100010000C9434000C9434000C9434000C94340090
:100020000C9434000C9434000C9434000C94340080
:100030000C9434000C9434000C9434000C94340070
:100040000C9434000C9434000C9434000C94340060
:100050000C94340011241FBECFE5D8E0DEBFCDBF25
:100060000E94AD030C94D4030C940000DF93CF9353
:1000700000D000D00F92CDB7DEB78A836B83198290
:100080008A81282F30E03D832C838C819D818230B2
:100090009105D9F02C813D812330310534F48C81D8
:1000A0009D818130910561F01FC02C813D812330FD
:1000B000310581F08C819D818430910581F014C0DF
:1000C000EAE3F0E08B81808311C0E7E3F0E08B810D
:1000D00080830CC0E4E3F0E08B81808307C0E1E320
:1000E000F0E08B81808302C081E0898389810F9059
:1000F0000F900F900F900F90CF91DF910895DF93A5
:10010000CF9300D000D00F92CDB7DEB78A836B8338
:1001100019828A81282F30E03D832C838C819D8138
:1001200082309105D9F02C813D812330310534F4A2
:100130008C819D818130910561F01FC02C813D81B2
:100140002330310581F08C819D818430910581F0CF
:1001500014C0EBE3F0E08B81808311C0E8E3F0E0B2
:100160008B8180830CC0E5E3F0E08B81808307C046
:10017000E2E3F0E08B81808302C081E089838981A2
:100180000F900F900F900F900F90CF91DF910895E7
:10019000DF93CF9300D000D0CDB7DEB78A8319822A
:1001A0008A81282F30E03C832B838B819C81823095
:1001B0009105D9F02B813C812330310534F48B81BA
:1001C0009C818130910561F01EC02B813C812330E0
:1001D000310581F08B819C818430910581F013C0C1
:1001E000E9E3F0E0808189830EC0E6E3F0E08081FE
:1001F000898309C0E3E3F0E08081898304C0E0E300
:10020000F0E08081898389810F900F900F900F908B
:10021000CF91DF910895DF93CF93CDB7DEB72897C5
:100220000FB6F894DEBF0FBECDBF8A836B834C83BD
:1002300019828B81883008F0F6C08C81882309F000
:1002400078C08A81282F30E038872F838F81988566
:100250008230910561F12F8138852330310534F4E6
:100260008F8198858130910569F060C02F81388534
:100270002330310589F18F8198858430910509F407
:1002800040C054C0AAE3B0E0EAE3F0E08081482F28
:100290008B81282F30E081E090E0022E02C0880F91
:1002A000991F0A94E2F7809584238C93BEC0A7E33C
:1002B000B0E0E7E3F0E08081482F8B81282F30E029
:1002C00081E090E0022E02C0880F991F0A94E2F7A5
:1002D000809584238C93A9C0A4E3B0E0E4E3F0E02C
:1002E0008081482F8B81282F30E081E090E0022E22
:1002F00002C0880F991F0A94E2F7809584238C939B
:1003000094C0A1E3B0E0E1E3F0E08081482F8B816D
:10031000282F30E081E090E0022E02C0880F991F64
:100320000A94E2F7809584238C937FC081E08983CF
:100330007CC08C81813009F073C08A81282F30E025
:100340003E832D838D819E818230910551F12D81D7
:100350003E812330310534F48D819E8181309105B9
:1003600061F05BC02D813E812330310571F18D81BB
:100370009E8184309105E9F150C0AAE3B0E0EAE340
:10038000F0E08081482F8B81282F30E081E090E0E1
:10039000022E02C0880F991F0A94E2F7842B8C93D7
:1003A00044C0A7E3B0E0E7E3F0E08081482F8B8111
:1003B000282F30E081E090E0022E02C0880F991FC4
:1003C0000A94E2F7842B8C9330C0A4E3B0E0E4E31A
:1003D000F0E08081482F8B81282F30E081E090E091
:1003E000022E02C0880F991F0A94E2F7842B8C9387
:1003F0001CC0A1E3B0E0E1E3F0E08081482F8B81F5
:10040000282F30E081E090E0022E02C0880F991F73
:100410000A94E2F7842B8C9308C081E0898305C09D
:1004200081E0898302C081E08983898128960FB6A3
:10043000F894DEBF0FBECDBFCF91DF910895DF935B
:10044000CF93CDB7DEB728970FB6F894DEBF0FBEB7
:10045000CDBF8A836B834C8319828B81883008F0EF
:10046000F6C08C81882309F078C08A81282F30E07B
:1004700038872F838F8198858230910561F12F8194
:1004800038852330310534F48F819885813091058A
:1004900069F060C02F8138852330310589F18F8163
:1004A00098858430910509F440C054C0ABE3B0E0B6
:1004B000EBE3F0E08081482F8B81282F30E081E052
:1004C00090E0022E02C0880F991F0A94E2F78095EF
:1004D00084238C93BEC0A8E3B0E0E8E3F0E0808121
:1004E000482F8B81282F30E081E090E0022E02C05F
:1004F000880F991F0A94E2F7809584238C93A9C0F2
:10050000A5E3B0E0E5E3F0E08081482F8B81282F60
:1005100030E081E090E0022E02C0880F991F0A941B
:10052000E2F7809584238C9394C0A2E3B0E0E2E3E9
:10053000F0E08081482F8B81282F30E081E090E02F
:10054000022E02C0880F991F0A94E2F78095842337
:100550008C937FC081E089837CC08C81813009F0DD
:1005600073C08A81282F30E03E832D838D819E8148
:100570008230910551F12D813E812330310534F4D3
:100580008D819E818130910561F05BC02D813E811E
:100590002330310571F18D819E8184309105E9F11F
:1005A00050C0ABE3B0E0EBE3F0E08081482F8B81FB
:1005B000282F30E081E090E0022E02C0880F991FC2
:1005C0000A94E2F7842B8C9344C0A8E3B0E0E8E3FC
:1005D000F0E08081482F8B81282F30E081E090E08F
:1005E000022E02C0880F991F0A94E2F7842B8C9385
:1005F00030C0A5E3B0E0E5E3F0E08081482F8B81D7
:10060000282F30E081E090E0022E02C0880F991F71
:100610000A94E2F7842B8C931CC0A2E3B0E0E2E3DF
:10062000F0E08081482F8B81282F30E081E090E03E
:10063000022E02C0880F991F0A94E2F7842B8C9334
:1006400008C081E0898305C081E0898302C081E020
:100650008983898128960FB6F894DEBF0FBECDBF7F
:10066000CF91DF910895DF93CF9300D000D00F9208
:10067000CDB7DEB78A836B8319828A81282F30E059
:100680003D832C834C815D814230510541F18C8149
:100690009D818330910534F42C813D8121303105D9
:1006A00061F052C04C815D814330510551F18C8124
:1006B0009D8184309105B9F147C0E9E3F0E0808184
:1006C000282F30E08B81882F90E0A90102C055953A
:1006D00047958A95E2F7CA018170898335C0E6E3C0
:1006E000F0E08081282F30E08B81882F90E0A901F5
:1006F00002C0559547958A95E2F7CA0181708983B2
:1007000023C0E3E3F0E08081282F30E08B81882F45
:1007100090E0A90102C0559547958A95E2F7CA0174
:100720008170898311C0E0E3F0E08081282F30E000
:100730008B81882F90E0A90102C0559547958A9535
:10074000E2F7CA018170898389810F900F900F9021
:100750000F900F90CF91DF910895DF93CF930F9279
:10076000CDB7DEB7198281E060E041E00E940B0165
:1007700081E061E040E00E940B0181E061E00E94C5
:10078000330389838981882331F481E060E040E08C
:100790000E941F02F2CF8981813079F781E060E009
:0C07A00041E00E941F02E9CFF894FFCF57
:00000001FF
