:100000000C942A000C9447000C9447000C94470071
:100010000C9447000C9447000C9447000C94470044
:100020000C9447000C9447000C9447000C94470034
:100030000C9447000C9447000C9447000C94470024
:100040000C9447000C9447000C9447000C94470014
:100050000C94470011241FBECFE5D8E0DEBFCDBF12
:1000600010E0A0E6B0E0EEE4FAE002C005900D92E8
:10007000AC39B107D9F710E0ACE9B0E001C01D928E
:10008000AE39B107E1F70E94A8040C9425050C9441
:1000900000008FEF8ABB97E097BB84BB9FE091BBCA
:1000A0001BBA18BA15BA82BB0895823069F0833042
:1000B00018F4813029F406C0833041F0843049F0CF
:1000C00081E008956ABB03C067BB01C064BB80E0E8
:1000D000089561BB80E00895823069F0833018F4A0
:1000E000813029F406C0833041F0843049F081E04A
:1000F00008956BBB03C068BB01C065BB80E0089579
:1001000062BB80E00895823069F0833018F481305A
:1001100029F406C0833041F0843041F080E0089536
:1001200089B3089586B3089583B3089580B308957D
:10013000683008F07CC0442309F03EC08230C1F032
:10014000833020F4813009F072C006C08330E1F0C2
:10015000843009F06CC024C02AB381E090E002C072
:10016000880F991F6A95E2F7809582238ABB5DC04C
:1001700027B381E090E002C0880F991F6A95E2F7EB
:100180008095822387BB51C024B381E090E002C0F8
:10019000880F991F6A95E2F78095822384BB45C03A
:1001A00021B381E090E002C0880F991F6A95E2F7C1
:1001B0008095822381BB39C04130C9F58230A9F0D6
:1001C000833018F4813099F505C08330C9F084304C
:1001D00071F521C02AB381E090E002C0880F991F19
:1001E0006A95E2F7282B2ABB20C027B381E090E074
:1001F00002C0880F991F6A95E2F7282B27BB15C00C
:1002000024B381E090E002C0880F991F6A95E2F75D
:10021000282B24BB0AC021B381E090E002C0880FE4
:10022000991F6A95E2F7282B21BB80E0089581E0B1
:100230000895683008F07CC0442309F03EC0823045
:10024000C1F0833020F4813009F072C006C08330E1
:10025000E1F0843009F06CC024C02BB381E090E061
:1002600002C0880F991F6A95E2F7809582238BBBA5
:100270005DC028B381E090E002C0880F991F6A95A5
:10028000E2F78095822388BB51C025B381E090E0DE
:1002900002C0880F991F6A95E2F78095822385BB7B
:1002A00045C022B381E090E002C0880F991F6A9593
:1002B000E2F78095822382BB39C04130C9F5823094
:1002C000A9F0833018F4813099F505C08330C9F066
:1002D000843071F521C02BB381E090E002C0880F1B
:1002E000991F6A95E2F7282B2BBB20C028B381E029
:1002F00090E002C0880F991F6A95E2F7282B28BB6F
:1003000015C025B381E090E002C0880F991F6A955F
:10031000E2F7282B25BB0AC022B381E090E002C09F
:10032000880F991F6A95E2F7282B22BB80E0089579
:1003300081E00895823069F0833018F4813029F427
:1003400006C0833041F0843079F080E0089589B3AD
:1003500003C086B301C083B390E002C09595879532
:100360006A95E2F78170089580B390E002C0959598
:1003700087956A95E2F7817008950F931F93062F72
:10038000142F213021F0223009F085C044C0823082
:10039000B1F0833020F4813009F07DC006C0833095
:1003A000C1F0843009F077C01EC081E06FEF0E9479
:1003B0005500E12FF0E0EC58FF4F81E01DC082E0D6
:1003C0006FEF0E945500E12FF0E0EC58FF4F82E004
:1003D00013C083E06FEF0E945500E12FF0E0EC586E
:1003E000FF4F83E009C084E06FEF0E945500E12FCA
:1003F000F0E0EC58FF4F84E060810E946C002BB36A
:1004000081E090E002C0880F991F0A95E2F780957D
:1004100082238BBB40C08230A1F0833018F481303E
:10042000D1F505C08330B9F08430A9F51EC081E054
:100430006FEF0E945500E12FF0E0E659FF4F81E099
:100440001DC082E06FEF0E945500E12FF0E0E659F9
:10045000FF4F82E013C083E06FEF0E945500E12F51
:10046000F0E0E659FF4F83E009C084E06FEF0E949F
:100470005500E12FF0E0E659FF4F84E060810E94D3
:100480006C002BB381E090E002C0880F991F0A95A1
:10049000E2F7282B2BBB1F910F910895CF92DF928B
:1004A000EF92FF920F931F93382FE62EC42E822FC8
:1004B0006AE00E94DC0480939D00822F0E94DC048D
:1004C00090939C00323009F43EC0333020F4313038
:1004D00009F0D8C007C0333009F466C0343009F0E1
:1004E000D1C093C081E06FEF0E945500E0919D0064
:1004F000F0E0EC58FF4F81E060810E946C009BB3FC
:1005000001E010E0980102C0220F331FEA94E2F7E5
:100510007901822F809589238BBB8BB302C0000F9A
:10052000111FCA94E2F7802B8BBB30E2C32E3EE44E
:10053000D32EC6010197F1F7E0919C00F0E0EC5852
:10054000FF4F81E092C082E06FEF0E945500E09182
:100550009D00F0E0EC58FF4F82E060810E946C004B
:100560009BB301E010E0980102C0220F331FEA9410
:10057000E2F77901822F809589238BBB8BB302C070
:10058000000F111FCA94E2F7802B8BBB20E2C22E12
:100590002EE4D22EC6010197F1F7E0919C00F0E025
:1005A000EC58FF4F82E061C083E06FEF0E9455007E
:1005B000E0919D00F0E0EC58FF4F83E060810E94E5
:1005C0006C009BB301E010E0980102C0220F331FC2
:1005D000EA94E2F77901822F809589238BBB8BB354
:1005E00002C0000F111FCA94E2F7802B8BBB90E270
:1005F000C92E9EE4D92EC6010197F1F7E0919C0027
:10060000F0E0EC58FF4F83E030C084E06FEF0E94D1
:100610005500E0919D00F0E0EC58FF4F84E06081D0
:100620000E946C009BB301E010E0980102C0220F11
:10063000331FEA94E2F77901822F809589238BBBDF
:100640008BB302C0000F111FCA94E2F7802B8BBB43
:1006500080E2C82E8EE4D82EC6010197F1F7E09112
:100660009C00F0E0EC58FF4F84E060810E946C0039
:100670008BB3E82AEBBA8BB3009508230BBBC601FA
:100680000197F1F71F910F91FF90EF90DF90CF90BE
:1006900008950F931F93182F82E060E041E00E94BD
:1006A000190181E0612F0E946C0082E062E041E06C
:1006B0000E94190100E117E2C8010197F1F782E0F9
:1006C00062E040E00E941901C8010197F1F71F9113
:1006D0000F9108956F927F928F929F92AF92BF92E7
:1006E000CF92DF92EF92FF920F931F935B016C0109
:1006F000611571058105910521F480E30E9449038C
:100700000DC097FF0BC08DE20E944903D094C094A6
:10071000B094A094A11CB11CC11CD11C81E0682E16
:10072000712C812C912C20C0C401B3012AE030E04F
:1007300040E050E00E94BD047B018C01C601B50180
:100740000E94E8043B014C016E0C7F1C801E911E30
:10075000C601B5012AE030E040E050E00E94E80424
:10076000C901DA015C016D01A114B104C104D10415
:10077000D9F618C0C401B3012AE030E040E050E0EF
:100780000E94E804862F805D0E944903C401B301E2
:100790002AE030E040E050E00E94E804C901DA01BC
:1007A0003C014D0181E0681671048104910411F748
:1007B0001F910F91FF90EF90DF90CF90BF90AF907F
:1007C0009F908F907F906F9008951F93CF93DF93AA
:1007D000EC0110E003C00E9449031F5FFE01E10F1E
:1007E000F11D80818823B9F7DF91CF911F91089582
:1007F0000F931F93182F82E060E040E00E941901E0
:1008000081E0612F0E946C0082E062E041E00E9482
:10081000190100E117E2C8010197F1F782E062E0F7
:1008200040E00E941901C8010197F1F71F910F9153
:10083000089581E00E94F8030895882329F081300B
:1008400011F060E001C0605C862F80580E94F803C0
:10085000089581E06FEF0E94550082E060E041E082
:100860000E94980082E062E041E00E94980084EFDC
:1008700091E028EC30E0F9013197F1F70197D9F7D1
:1008800088E30E94F8038CE00E94F80381E00E9454
:10089000F80380EA9FE00197F1F786E00E94F803F1
:1008A00008950F931F93CF93DF93C0E0D0E0FE0134
:1008B000E856FF4F108184E0612F40E00E9419014B
:1008C00004E084E064E00E949A01882319F4E0E0E7
:1008D000F0E01DC005E084E065E00E949A018823F5
:1008E00019F4E1E0F0E013C006E084E066E00E9465
:1008F0009A01882319F4E2E0F0E009C007E084E0FF
:1009000067E00E949A01882391F4E3E0F0E0EE0FA3
:10091000FF1FEE0FFF1FEC0FFD1FE857FF4F108169
:1009200084E0602F0E949A018823D1F30BC084E0F9
:10093000612F41E00E9419012196C430D10509F0D0
:10094000B6CF1FEF812FDF91CF911F910F910895A7
:100950001F930E9449000E9429040E945104182FED
:100960008F3FD9F30E944903E12FF0E0E25BFF4F94
:1009700083E060810E946C00F0CF629FD001739F82
:10098000F001829FE00DF11D649FE00DF11D929F2B
:10099000F00D839FF00D749FF00D659FF00D99276A
:1009A000729FB00DE11DF91F639FB00DE11DF91F8E
:1009B000BD01CF0111240895991B79E004C0991F4E
:1009C000961708F0961B881F7A95C9F780950895A9
:1009D00097FB092E05260ED057FD04D014D00AD05F
:1009E000001C38F450954095309521953F4F4F4F5E
:1009F0005F4F0895F6F790958095709561957F4FBC
:100A00008F4F9F4F0895A1E21A2EAA1BBB1BFD0119
:100A10000DC0AA1FBB1FEE1FFF1FA217B307E407DD
:100A2000F50720F0A21BB30BE40BF50B661F771F35
:100A3000881F991F1A9469F7609570958095909515
:0E0A40009B01AC01BD01CF010895F894FFCFDA
:100A4E003F065B4F666D7D077F67C0F9A4B0999234
:100A5E0082F880903F065B4F666D7D077F6F3F0685
:100A6E005B4F666D7D077F673738392F3435362AF1
:0C0A7E003132332D6F303D2B000102039C
:00000001FF
